:100000000C942A000C9447000C9447000C94470071
:100010000C9447000C9447000C9447000C94470044
:100020000C9447000C9447000C9447000C94470034
:100030000C9447000C9447000C9447000C94470024
:100040000C9447000C9447000C9447000C94470014
:100050000C94470011241FBECFE5D4E0DEBFCDBF16
:1000600010E0A0E6B0E0E8E3F4E002C005900D92F5
:10007000AA3BB107D9F720E0AAEBB0E001C01D927E
:10008000AD3BB207E1F70E9413020C941A020C94E4
:100090000000982F907F98BBC098C198C29A2FEF0C
:1000A00039EF90E0215030409040E1F700C000006F
:1000B000C29820E1829FC001112488BBC098C198DA
:1000C000C29A3FEF89EF90E0315080409040E1F7D5
:1000D00000C00000C2980895982F907F98BBC09AE6
:1000E000C198C29A2FEF39EF90E0215030409040F4
:1000F000E1F700C00000C29820E1829FC0011124F6
:1001000088BBC09AC198C29A3FEF89EF90E0315006
:1001100080409040E1F700C00000C29808958FEF42
:1001200087BB82E00E94490088E20E94490086E085
:100130000E9449008EE00E94490081E00E9449002F
:100140000895CF93DF93EC018881882331F02196C5
:100150000E946C0089918111FBCFDF91CF910895AE
:10016000E0E6F0E0ACEBB0E024E630E080E090E0E8
:1001700051914D91541302C0019601C00197E217AD
:10018000F307B1F7049779F480E80E94490084E608
:1001900090E00E94A10080EC0E94490085E790E079
:1001A0000E94A100089580E80E94490086E890E03E
:1001B0000E94A10080EC0E94490080E990E00E942A
:1001C000A10080EC90E00E94A100089580EF84BB24
:1001D0008FE085BBAC9885B3806E85BB98990FC0C6
:1001E0008AE990E00E94A1008091BA00E82FF0E037
:1001F000E454FF4F97E390838F5F8093BA009999FF
:100200000FC08CE990E00E94A1008091BA00E82F15
:10021000F0E0E454FF4F94E390838F5F8093BA0043
:100220009A990FC08EE990E00E94A1008091BA00D7
:10023000E82FF0E0E454FF4F91E390838F5F8093C9
:10024000BA009B990FC080EA90E00E94A1008091C3
:10025000BA00E82FF0E0E454FF4F90E290838F5F04
:100260008093BA00AD9885B3806D85BB98990FC017
:1002700082EA90E00E94A1008091BA00E82FF0E0AD
:10028000E454FF4F98E390838F5F8093BA0099996D
:100290000FC084EA90E00E94A1008091BA00E82F8C
:1002A000F0E0E454FF4F95E390838F5F8093BA00B2
:1002B0009A990FC086EA90E00E94A1008091BA004E
:1002C000E82FF0E0E454FF4F92E390838F5F809338
:1002D000BA009B990FC088EA90E00E94A10080912B
:1002E000BA00E82FF0E0E454FF4F90E390838F5F73
:1002F0008093BA00AE9885B3806B85BB98990FC088
:100300008AEA90E00E94A1008091BA00E82FF0E014
:10031000E454FF4F99E390838F5F8093BA009999DB
:100320000FC08CEA90E00E94A1008091BA00E82FF3
:10033000F0E0E454FF4F96E390838F5F8093BA0020
:100340009A990FC08EEA90E00E94A1008091BA00B5
:10035000E82FF0E0E454FF4F93E390838F5F8093A6
:10036000BA009B990FC080EB90E00E94A1008091A1
:10037000BA00E82FF0E0E454FF4F9DE390838F5FD5
:100380008093BA00AF9885B3806785BB98990FC0FA
:1003900082EB90E00E94A1008091BA00E82FF0E08B
:1003A000E454FF4F9FE290838F5F8093BA00999946
:1003B0000FC084EB90E00E94A1008091BA00E82F6A
:1003C000F0E0E454FF4F9AE290838F5F8093BA008D
:1003D0009A990FC086EB90E00E94A1008091BA002C
:1003E000E82FF0E0E454FF4F9DE290838F5F80930D
:1003F000BA009B990FC088EB90E00E94A100809109
:10040000BA00E82FF0E0E454FF4F9BE290838F5F47
:100410008093BA008091BA00843021F40E94B00029
:100420001092BA0008958FEF87BB0E948F000E9440
:08043000E600FDCFF894FFCFB8
:1004380036303134436F7272656374205061737360
:10044800776F72640057656C636F6D6520757365AF
:10045800722021212100496E636F727265637400F6
:1004680054727920616761696E0037003400310089
:1004780020003800350032003000390036003300E3
:0A0488003D002F002A002D002B007C
:00000001FF
